S015000062696E5C44656275675C4554432E737265635B
S11300000C9434000C9451000C9451000C94510045
S11300100C9451000C9451000C9451000C94510018
S11300200C9451000C9451000C9451000C94510008
S11300300C9451000C9451000C9451000C945100F8
S11300400C9451000C9451000C9451000C945100E8
S11300500C9451000C9451000C9451000C945100D8
S11300600C9451000C94510011241FBECFEFD8E022
S1130070DEBFCDBF11E0A0E0B1E0E6EBF7E102C0E6
S113008005900D92A437B107D9F721E0A4E7B1E0B8
S113009001C01D92A837B207E1F70E9402090C942F
S11300A0D90B0C940000CF93DF93CDB7DEB787E272
S11300B090E0FC0110828CE790E0FC0110828CE758
S11300C090E0FC0120818CE790E02064FC01208317
S11300D08AE790E0FC0110828AE790E0FC0120812D
S11300E08AE790E02068FC0120830000DF91CF9133
S11300F00895CF93DF93CDB7DEB78AE790E0FC0194
S113010020818AE790E02068FC0120830000DF91D1
S1130110CF910895CF93DF93CDB7DEB78AE790E010
S1130120FC0120818AE790E02F77FC012083000006
S1130130DF91CF910895CF93DF93CDB7DEB7CD5440
S1130140D1090FB6F894DEBF0FBECDBF8DA38CE7E7
S113015090E0DC011C928CE790E0FC0120818CE7AC
S113016090E02064DC012C938CE790E0FC0180811A
S1130170982F8DA18F70292F282B8CE790E0DC011C
S11301802C938AE790E0FC0120818AE790E02064C8
S1130190DC012C9300008AE790E0FC018081882F29
S11301A090E080749927892BB1F380E090E0A8EC6B
S11301B0B2E48D839E83AF83B8872BEA3AEA4AEA96
S11301C050E46D817E818F8198850E94630B6AA7BC
S11301D07BA78CA79DA78AA59BA5ACA5BDA5898750
S11301E09A87AB87BC8720E030E040E850E46D811B
S11301F07E818F8198850E94630B6EA77FA788AB51
S113020099AB8EA59FA5A8A9B9A98D879E87AF870D
S1130210B88B20E030E040E85FE369857A858B8520
S11302209C850E94130A88231CF481E0898BEAC010
S113023020E03FEF4FE757E46D857E858F859889F1
S11302400E945F0B18160CF0A3C020E030E04AE7D0
S113025054E46D817E818F8198850E94170A6AAB70
S11302607BAB8CAB9DAB8AA99BA9ACA9BDA98A8B9E
S11302709B8BAC8BBD8B20E030E04AE755E46A8968
S11302807B898C899D890E94630B6EAB7FAB88AFA1
S113029099AF8EA99FA9A8ADB9AD8E8B9F8BA88F5E
S11302A0B98F20E030E040E85FE36E897F89888D74
S11302B0998D0E94130A88232CF481E090E09B8F8F
S11302C08A8F5BC020E03FEF4FE757E46E897F8958
S11302D0888D998D0E945F0B18160CF03CC020E0AD
S11302E030E040E251E46A897B898C899D890E94CF
S11302F0630B6AAF7BAF8CAF9DAF8AAD9BADACADEA
S1130300BDAD8EA39FA3A8A7B9A76EA17FA188A501
S113031099A50E94800A22966CAF7DAF8EAF9FAFE5
S11303202297AEADBFADBB8FAA8F10C080E991E01C
S11303309D8F8C8F8C8D9D8D0197F1F79D8F8C8F68
S113034000008A8D9B8D01979B8F8A8F8A8D9B8D50
S1130350892B61F757C06E897F89888D998D0E949A
S1130360800A26966CAF7DAF8EAF9FAF26972496FA
S1130370EEADFFAD2497FB8FEA8F8A8D9B8D9F8F07
S11303808E8F8E8D9F8D0197F1F79F8F8E8F3AC040
S113039020E030E04FE753E469857A858B859C85BE
S11303A00E945F0B1816F4F46D857E858F859889FD
S11303B00E94800A2A966CAF7DAF8EAF9FAF2A97BA
S11303C028968EAD9FAD289799A388A388A199A15B
S11303D09BA38AA38AA19BA10197F1F79BA38AA35C
S11303E0000017C069857A858B859C850E94800AE8
S11303F02E966CAF7DAF8EAF9FAF2E972B969FAD91
S11304002B97998B89898CA38CA18A95F1F78CA35E
S1130410000088E790E0DC018C91882F90E09A83BB
S1130420898389E790E0FC018081882F90E0982FF0
S113043088279C838B832B813C8189819A81820FBD
S1130440931F9C838B838B819C81C35BDF4F0FB68F
S1130450F894DEBF0FBECDBFDF91CF910895CF9347
S1130460DF93CDB7DEB7F89461E080E091E00E94BD
S1130470920361E084E091E00E94920360E088E0EE
S113048091E00E94920360E08CE091E00E9492036C
S113049060E080E191E00E94920360E084E191E0F9
S11304A00E94920360E084E091E00E94E0050E94D3
S11304B04E0987E290E0FC0110820E948F090E949D
S11304C053000E9479000000DF91CF910895CF93EB
S11304D0DF93CDB7DEB70E948A000E94750960E001
S11304E084E091E00E94E00587E490E0FC01108242
S11304F00000DF91CF910895CF93DF93CDB7DEB79E
S11305000E948F0961E084E091E00E94E00587E4A5
S113051090E029E1FC0120830000DF91CF91089550
S11305200F931F93CF93DF93CDB7DEB76C970FB6BE
S1130530F894DEBF0FBECDBF0E9479000E948F09E0
S113054060E084E091E00E94E00580E00E949B006E
S11305509C01990F440B550B2D873E874F87588B71
S11305606D857E858F8598890E94AE0A69837A831A
S11305708B839C8323E333E343E950E469817A81E9
S11305808B819C810E94170A698B7A8B8B8B9C8B45
S113059089899A89AB89BC898D839E83AF83B88707
S11305A020E030E048EC51E46D817E818F819885B4
S11305B00E94AA096D8B7E8B8F8B988F2D893E8923
S11305C04F89588D29873A874B875C8707E410E069
S11305D069857A858B859C850E94800A698F7A8FCC
S11305E08B8F9C8F898DD8018C9300006C960FB6ED
S11305F0F894DEBF0FBECDBFDF91CF911F910F9155
S113060008950F931F93CF93DF93CDB7DEB76C9705
S11306100FB6F894DEBF0FBECDBF0E9479000E94D2
S11306208F0960E084E091E00E94E00581E00E948F
S11306309B009C01990F440B550B2D873E874F87D8
S1130640588B6D857E858F8598890E94AE0A698353
S11306507A838B839C8323E333E343E950E4698106
S11306607A818B819C810E94170A698B7A8B8B8B90
S11306709C8B89899A89AB89BC898D839E83AF833E
S1130680B88720E030E048EC51E46D817E818F81B1
S113069098850E94AA096D8B7E8B8F8B988F2D89EC
S11306A03E894F89588D29873A874B875C8707E4B1
S11306B010E069857A858B859C850E94800A698F04
S11306C07A8F8B8F9C8F898DD8018C9300006C96C8
S11306D00FB6F894DEBF0FBECDBFDF91CF911F914F
S11306E00F910895CF93DF93CDB7DEB788E091E003
S11306F00E94EF07809377018CE091E00E94EF075E
S11307008093740180E191E00E94EF07809375016A
S113071084E191E00E94EF07809376010000DF916D
S1130720CF910895CF93DF9300D000D0CDB7DEB73B
S11307309B838A836C838A819B810296FC018081DE
S1130740805389838C81813009F0F9C08A819B812F
S113075068E171E00E94CE0B892B81F18A819B8133
S11307606CE171E00E94CE0B892B41F18A819B815F
S113077060E271E00E94CE0B892B01F18A819B819A
S113078064E271E00E94CE0B892BC1F08A819B81C7
S113079068E271E00E94CE0B892B81F08A819B81F3
S11307A06CE271E00E94CE0B892B41F08A819B811F
S11307B060E371E00E94CE0B892BA9F487E290E0FC
S11307C0FC018081482F8981282F30E081E090E06E
S11307D002C0880F991F2A95E2F7242F282B87E25D
S11307E090E0FC0120838A819B8164E371E00E9494
S11307F0CE0B892BC1F18A819B8168E371E00E9451
S1130800CE0B892B81F18A819B816CE371E00E947C
S1130810CE0B892B41F18A819B8160E471E00E94B7
S1130820CE0B892B01F18A819B8164E471E00E94E3
S1130830CE0B892BC1F08A819B8168E471E00E9410
S1130840CE0B892B81F08A819B816CE471E00E943C
S1130850CE0B892B41F08A819B8160E571E00E9477
S1130860CE0B892BA9F484E290E0FC018081482F0F
S11308708981282F30E081E090E002C0880F991F21
S11308802A95E2F7242F282B84E290E0FC012083B0
S11308908A819B8164E571E00E94CE0B892BC9F1AA
S11308A08A819B8168E571E00E94CE0B892B89F1D6
S11308B08A819B816CE571E00E94CE0B892B49F102
S11308C08A819B8160E671E00E94CE0B892B09F13D
S11308D08A819B8164E671E00E94CE0B892BC9F06A
S11308E08A819B8168E671E00E94CE0B892B89F096
S11308F08A819B816CE671E00E94CE0B892B49F0C2
S11309008A819B8160E771E00E94CE0B892B09F0FC
S11309104FC18AE290E0FC018081482F8981282F11
S113092030E081E090E002C0880F991F2A95E2F739
S1130930242F282B8AE290E0FC01208339C18A818C
S11309409B8168E171E00E94CE0B892B81F18A8141
S11309509B816CE171E00E94CE0B892B41F18A816D
S11309609B8160E271E00E94CE0B892B01F18A81A8
S11309709B8164E271E00E94CE0B892BC1F08A81D5
S11309809B8168E271E00E94CE0B892B81F08A8101
S11309909B816CE271E00E94CE0B892B41F08A812D
S11309A09B8160E371E00E94CE0B892B59F587E2AD
S11309B090E0FC018081482F8981282F30E081E07C
S11309C090E002C0880F991F2A95E2F78095242FA2
S11309D0282387E290E0FC01208388E290E0FC0178
S11309E08081482F8981282F30E081E090E002C087
S11309F0880F991F2A95E2F7242F282B88E290E08C
S1130A00FC0120838A819B8164E371E00E94CE0B08
S1130A10892BC1F18A819B8168E371E00E94CE0B2E
S1130A20892B81F18A819B816CE371E00E94CE0B5A
S1130A30892B41F18A819B8160E471E00E94CE0B95
S1130A40892B01F18A819B8164E471E00E94CE0BC1
S1130A50892BC1F08A819B8168E471E00E94CE0BEE
S1130A60892B81F08A819B816CE471E00E94CE0B1A
S1130A70892B41F08A819B8160E571E00E94CE0B55
S1130A80892B59F584E290E0FC018081482F89810B
S1130A90282F30E081E090E002C0880F991F2A954A
S1130AA0E2F78095242F282384E290E0FC01208340
S1130AB085E290E0FC018081482F8981282F30E075
S1130AC081E090E002C0880F991F2A95E2F7242F55
S1130AD0282B85E290E0FC0120838A819B8164E5D8
S1130AE071E00E94CE0B892BC1F18A819B8168E55C
S1130AF071E00E94CE0B892B81F18A819B816CE588
S1130B0071E00E94CE0B892B41F18A819B8160E6C2
S1130B1071E00E94CE0B892B01F18A819B8164E6EE
S1130B2071E00E94CE0B892BC1F08A819B8168E61B
S1130B3071E00E94CE0B892B81F08A819B816CE647
S1130B4071E00E94CE0B892B41F08A819B8160E782
S1130B5071E00E94CE0B892B59F58AE290E0FC01EA
S1130B608081482F8981282F30E081E090E002C005
S1130B70880F991F2A95E2F78095242F28238AE26B
S1130B8090E0FC0120838BE290E0FC018081482FFF
S1130B908981282F30E081E090E002C0880F991FFE
S1130BA02A95E2F7242F282B8BE290E0FC01208386
S1130BB000000F900F900F900F90DF91CF91089548
S1130BC0CF93DF9300D000D0CDB7DEB79B838A8369
S1130BD06C838A819B810296FC0180818053898386
S1130BE08C81813009F0F9C08A819B8168E171E0D0
S1130BF00E94CE0B892B81F18A819B816CE171E08B
S1130C000E94CE0B892B41F18A819B8160E271E0C5
S1130C100E94CE0B892B01F18A819B8164E271E0F1
S1130C200E94CE0B892BC1F08A819B8168E271E01E
S1130C300E94CE0B892B81F08A819B816CE271E04A
S1130C400E94CE0B892B41F08A819B8160E371E085
S1130C500E94CE0B892BA9F488E290E0FC018081EC
S1130C60482F8981282F30E081E090E002C0880F6E
S1130C70991F2A95E2F7242F282B88E290E0FC01A3
S1130C8020838A819B8164E371E00E94CE0B892BCF
S1130C90C1F18A819B8168E371E00E94CE0B892BAC
S1130CA081F18A819B816CE371E00E94CE0B892BD8
S1130CB041F18A819B8160E471E00E94CE0B892B13
S1130CC001F18A819B8164E471E00E94CE0B892B3F
S1130CD0C1F08A819B8168E471E00E94CE0B892B6C
S1130CE081F08A819B816CE471E00E94CE0B892B98
S1130CF041F08A819B8160E571E00E94CE0B892BD3
S1130D00A9F485E290E0FC018081482F8981282F95
S1130D1030E081E090E002C0880F991F2A95E2F745
S1130D20242F282B85E290E0FC0120838A819B817B
S1130D3064E571E00E94CE0B892BC9F18A819B8105
S1130D4068E571E00E94CE0B892B89F18A819B8131
S1130D506CE571E00E94CE0B892B49F18A819B815D
S1130D6060E671E00E94CE0B892B09F18A819B8198
S1130D7064E671E00E94CE0B892BC9F08A819B81C5
S1130D8068E671E00E94CE0B892B89F08A819B81F1
S1130D906CE671E00E94CE0B892B49F08A819B811D
S1130DA060E771E00E94CE0B892B09F010C18BE241
S1130DB090E0FC018081482F8981282F30E081E078
S1130DC090E002C0880F991F2A95E2F7242F282B60
S1130DD08BE290E0FC012083FAC08A819B8168E168
S1130DE071E00E94CE0B892B81F18A819B816CE199
S1130DF071E00E94CE0B892B41F18A819B8160E2D4
S1130E0071E00E94CE0B892B01F18A819B8164E2FF
S1130E1071E00E94CE0B892BC1F08A819B8168E22C
S1130E2071E00E94CE0B892B81F08A819B816CE258
S1130E3071E00E94CE0B892B41F08A819B8160E393
S1130E4071E00E94CE0B892BB1F488E290E0FC01A2
S1130E508081482F8981282F30E081E090E002C012
S1130E60880F991F2A95E2F78095242F282388E27A
S1130E7090E0FC0120838A819B8164E371E00E94FD
S1130E80CE0B892BC1F18A819B8168E371E00E94BA
S1130E90CE0B892B81F18A819B816CE371E00E94E6
S1130EA0CE0B892B41F18A819B8160E471E00E9421
S1130EB0CE0B892B01F18A819B8164E471E00E944D
S1130EC0CE0B892BC1F08A819B8168E471E00E947A
S1130ED0CE0B892B81F08A819B816CE471E00E94A6
S1130EE0CE0B892B41F08A819B8160E571E00E94E1
S1130EF0CE0B892BB1F485E290E0FC018081482F70
S1130F008981282F30E081E090E002C0880F991F8A
S1130F102A95E2F78095242F282385E290E0FC01AE
S1130F2020838A819B8164E571E00E94CE0B892B2A
S1130F30C1F18A819B8168E571E00E94CE0B892B07
S1130F4081F18A819B816CE571E00E94CE0B892B33
S1130F5041F18A819B8160E671E00E94CE0B892B6E
S1130F6001F18A819B8164E671E00E94CE0B892B9A
S1130F70C1F08A819B8168E671E00E94CE0B892BC7
S1130F8081F08A819B816CE671E00E94CE0B892BF3
S1130F9041F08A819B8160E771E00E94CE0B892B2E
S1130FA0B1F48BE290E0FC018081482F8981282FE5
S1130FB030E081E090E002C0880F991F2A95E2F7A3
S1130FC08095242F28238BE290E0FC0120830000ED
S1130FD00F900F900F900F90DF91CF910895CF93C2
S1130FE0DF9300D000D0CDB7DEB79C838B8381E044
S1130FF089838B819C810296FC01808180538A8342
S11310008B819C8168E171E00E94CE0B892B81F178
S11310108B819C816CE171E00E94CE0B892B41F1A4
S11310208B819C8160E271E00E94CE0B892B01F1DF
S11310308B819C8164E271E00E94CE0B892BC1F00C
S11310408B819C8168E271E00E94CE0B892B81F038
S11310508B819C816CE271E00E94CE0B892B41F064
S11310608B819C8160E371E00E94CE0B892BB1F4EB
S113107086E290E0FC018081882F90E02A81222F73
S113108030E002C0959587952A95E2F781709927FB
S1131090892B19F081E0898301C019828B819C819D
S11310A064E371E00E94CE0B892BC1F18B819C819A
S11310B068E371E00E94CE0B892B81F18B819C81C6
S11310C06CE371E00E94CE0B892B41F18B819C81F2
S11310D060E471E00E94CE0B892B01F18B819C812D
S11310E064E471E00E94CE0B892BC1F08B819C815A
S11310F068E471E00E94CE0B892B81F08B819C8186
S11311006CE471E00E94CE0B892B41F08B819C81B1
S113111060E571E00E94CE0B892BB1F483E290E08C
S1131120FC018081882F90E02A81222F30E002C0C8
S1131130959587952A95E2F781709927892B19F05F
S113114081E0898301C019828B819C8164E571E00F
S11311500E94CE0B892BC1F18B819C8168E571E0E3
S11311600E94CE0B892B81F18B819C816CE571E00F
S11311700E94CE0B892B41F18B819C8160E671E04A
S11311800E94CE0B892B01F18B819C8164E671E076
S11311900E94CE0B892BC1F08B819C8168E671E0A3
S11311A00E94CE0B892B81F08B819C816CE671E0CF
S11311B00E94CE0B892B41F08B819C8160E771E00A
S11311C00E94CE0B892BB1F489E290E0FC0180816E
S11311D0882F90E02A81222F30E002C095958795D0
S11311E02A95E2F781709927892B19F081E0898388
S11311F001C0198289810F900F900F900F90DF9199
S1131200CF910895CF93DF93CDB7DEB70E942F021D
S11312100E947203809177018823E9F5809174011B
S1131220882359F480917501813039F480917601D5
S1131230813019F40E94010330C080917501882324
S113124059F480917401813039F4809176018130B0
S113125019F40E94900221C080917401813059F4E4
S113126080917501813039F480917601813019F4CF
S11312700E94900212C080917601882349F08091E7
S11312807401882329F680917501882309F0C0CF61
S11312900E947C02BDCF0E946702BACFCF93DF9336
S11312A0CDB7DEB784E490E0FC01208184E490E0D3
S11312B02360FC01208386E490E0FC01108285E435
S11312C090E0FC01208185E490E02560FC0120830E
S11312D085E490E0FC01208185E490E02D7FFC0111
S11312E020830000DF91CF910895CF93DF93CDB792
S11312F0DEB784E490E0FC01208184E490E02F7761
S1131300FC01208384E490E0FC01208184E490E0EB
S11313102F7BFC0120830000DF91CF910895CF93B0
S1131320DF93CDB7DEB784E490E0FC01208184E450
S113133090E02068FC01208384E490E0FC0120819B
S113134084E490E02F7BFC0120830000DF91CF91A7
S113135008955058BB27AA270ED076C167D130F024
S11313606CD120F031F49F3F11F41EF45CC10EF4F3
S1131370E095E7FB52C1E92F78D180F3BA176207F1
S113138073078407950718F099F4C6F590C10EF415
S1131390E0950B2EBA2FA02D062E622F202D072E9E
S11313A0732F302D082E842F402D092E952F502D6C
S11313B0FF27591B99F0593F50F4503E68F11A1613
S11313C0F040A22F232F342F4427585FF3CF4695A4
S11313D037952795A795F0405395C9F77EF41F16C6
S11313E0BA0B620B730B840BBAF09150A1F0FF0F90
S11313F0BB1F661F771F881FC2F70EC0BA0F621F7C
S1131400731F841F48F4879577956795B795F7956B
S11314109E3F08F0AECF9395880F08F09927EE0F02
S1131420979587950895D5D008F481E008950CD058
S11314300BC103D140F0FAD030F021F45F3F19F032
S1131440ECC0511135C1EFC010D198F39923C9F301
S11314505523B1F3951B550BBB27AA2762177307B6
S1131460840738F09F5F5F4F220F331F441FAA1F6A
S1131470A9F334D00E2E3AF0E0E831D09150504028
S1131480E695001CCAF72AD0FE2F28D0660F771FD6
S1131490881FBB1F261737074807AB07B0E809F0BA
S11314A0BB0B802D6E2F7F2FFF2793585F4F2AF0A1
S11314B09E3F510568F0B1C0FBC05F3FECF3983E1E
S11314C0DCF3869577956795B795F7959F5FC9F790
S11314D0880F911D9695879597F90895E1E0660F19
S11314E0771F881FBB1F621773078407BA0720F092
S11314F0621B730B840BBA0BEE1F88F7E0950895FB
S1131500BCD088F09F5790F0B92F9927B751A0F01D
S1131510D1F0660F771F881F991F1AF0BA95C9F783
S113152012C0B13081F0C3D0B1E00895C0C0672FBC
S1131530782F8827B85F39F0B93FCCF38695779533
S11315406795B395D9F73EF490958095709561951C
S11315507F4F8F4F9F4F0895E89409C097FB3EF447
S113156090958095709561957F4F8F4F9F4F9923EC
S1131570A9F0F92F96E9BB279395F695879577956A
S11315806795B795F111F8CFFAF4BB0F11F460FF2A
S11315901BC06F5F7F4F8F4F9F4F16C0882311F082
S11315A096E911C0772321F09EE8872F762F05C096
S11315B0662371F096E8862F70E060E02AF09A9531
S11315C0660F771F881FDAF7880F9695879597F926
S11315D00895990F0008550FAA0BE0E8FEEF1616C0
S11315E01706E807F907C0F012161306E407F50713
S11315F098F0621B730B840B950B39F40A2661F087
S1131600232B242B252B21F408950A2609F4A14029
S1131610A6958FEF811D811D089597F99F6780E836
S113162070E060E008959FEF80EC089500240A9430
S11316301616170618060906089500240A941216A9
S11316401306140605060895092E0394000C11F4DC
S1131650882352F0BB0F40F4BF2B11F460FF04C089
S11316606F5F7F4F8F4F9F4F089557FD9058440FE2
S1131670551F59F05F3F71F04795880F97FB991FED
S113168061F09F3F79F087950895121613061406AA
S1131690551FF2CF4695F1DF08C016161706180637
S11316A0991FF1CF86957105610508940895E89412
S11316B0BB2766277727862F972F97F9089589DF09
S11316C008F48FEF08950AD0BFCFB0DF28F0B5DF5C
S11316D018F0952309F0A1CFA6CFEACFC6DFA8F36F
S11316E09923D9F35523C9F3950F50E0551FAA2721
S11316F0EE27FF27BB2700240894679520F4E20F08
S1131700F31FB41F0A1E220F331F441FAA1F66951E
S1131710A9F7779530F4F30FB41F0A1E121E08F4CC
S11317206395330F441FAA1F221F769599F7879557
S113173020F4B40F0A1E121E631F440FAA1F221F97
S1131740331F8695A9F7862F712D602D11249F577D
S113175050408AF0E1F088234AF0EE0FFF1FBB1FD0
S1131760661F771F881F91505040A9F79E3F51056F
S113177070F053CF9DCF5F3FECF3983EDCF386953A
S113178077956795B795F795E7959F5FC1F7FE2B1A
S1131790880F911D9695879597F90895E62FF72F51
S11317A0A82FB92F8D91019080190110D9F3990BAD
S10917B00895F894FFCF38
S11317B65044360050423100504430005044320008
S11317C650443300504434005043360050433500EF
S11317D650433400504333005043320050433100E9
S11317E650433000504237005042360050423500D4
S11317F650423400504233005042320050423100CD
S113180650423000504437005044360050443500AE
S113181650443400504433005044320050443100A4
S107182650443000F6
S9030000FC
